S0260000696F73747265616D5F75736172745F6B65726E656C5F6D69637269756D6F732E733337C5
S21400000000100020E11D000089B1000089B1000049
S21400001089B1000089B1000089B1000089B10000F3
S21400002089B1000089B1000089B1000089B10000E3
S21400003089B1000089B10000076800004917000078
S21400004089B1000089B10000D523000089B1000005
S21400005089B1000089B1000089B1000089B10000B3
S21400006089B1000089B1000089B1000089B10000A3
S21400007089B1000089B1000089B1000089B1000093
S21400008089B1000089B1000089B1000089B1000083
S21400009089B1000089B1000089B1000089B1000073
S2140000A089B1000089B1000089B1000089B1000063
S2140000B089B1000089B1000089B10000E185000027
S2140000C089B1000089B1000089B1000089B1000043
S2140000D089B1000089B1000089B1000089B1000033
S2140000E089B1000089B1000089B1000089B1000023
S2140000F089B1000089B1000089B1000089B1000013
S21400010089B1000089B10000B11D00006FB1000088
S21400011089B1000089B1000089B1000089B10000F2
S21400012089B1000089B1000089B1000089B10000E2
S21400013089B1000089B1000089B1000089B10000D2
S21400014089B1000089B1000089B1000089B10000C2
S214000150000000000000000000000000000000009A
S21400016001F0FF01102A2BDB10F0070F08D010F863
S214000170013B013A8B422DD010F0070F42B3F6D167
S214000180F0B441EA012141EA014122F007047FF080
S21400019000070023F0E80256083C85EA010586EAD7
S2140001A0010685FA47F5A3FA87F586FA47F6A5FA13
S2140001B087F68EB9EED1F0BC01F0FF0102F007021F
S2140001C032B110F8013B013A83EA010313B1F8D1CA
S2140001D00020704701387047002D06BF35460338AB
S2140001E0073815F0010F07D1013015F4807F02BFE4
S2140001F0013015F4C03F0130F0BC0138704700BF35
S21400020010B5054C237833B9044B13B10448AFF34B
S21400021000800123237010BDD819002000000000C4
S214000220384C010008B5034B1BB103490348AFF334
S214000230008008BD00000000DC190020384C0100DA
S214000240A3F5803A704700BF174B002B08BF134B2F
S2140002509D46FFF7F5FF00218B460F461348144ACC
S214000260121A0BF09EFF0E4B002B00D098470D4B3A
S214000270002B00D098470020002104000D000D48F8
S214000280002802D00C48AFF3008008F063FB200083
S21400029029000AF052FF08F049FB00BF00000800E2
S2140002A00000000000000000001000202C110020BC
S2140002B0A850002000000000000000002DE9F04FCC
S2140002C0494B4A4C1868DFF85CB1494E89B007F0D4
S2140002D023F90023CDE90033464A4748022107F0B8
S2140002E0ADFF4FF4006008F059FB05462368434F06
S2140002F0DFF83481A02B04BF0023236020683B680E
S21400030098424FD104AA0021012006F035F923684F
S214000310002BF3D013F00F030393EFD1384BDFF825
S2140003200C811B68374F4A465146584608F026FC53
S214000330D8F8003003F1A002B2F5FA4F50D3304699
S2140003400AF0EAFE304A314813680133136012217E
S2140003502F4A08F077FD2D490B2230460AF0CBFBDA
S214000360039B38602949C8F80030332230460AF02B
S214000370C2FB38603A681AB12449264808F0FEFBEA
S214000380254B4FF400721A602946244B30460AF07B
S21400039011FD024638600028A8D01C49204808F005
S2140003A0EDFBA3E7D8F80030010103EB001253F889
S2140003B00190D2F804A0434203F00F0300F00F00B0
S2140003C058BF584293682221CDE900935A465346B7
S2140003D005EB401008F036FD23680133236096E7EE
S2140003E01033C8F80030C5E73C1000202410002069
S2140003F03011002031040000081A0020001A0020E6
S214000400041A00202C1A0020FC1900200E110020CF
S214000410D9C50000EBC50000D41E0020D01E002069
S21400042008C60000C0C50000F4190020F819002016
S2140004302DE9F041214C2368A02B04BF0023236044
S2140004401F4B01221A601F4B9A60DA68D203FCD554
S2140004501D4A9B6C136040F6C41253431B4D1B0B86
S2140004602B6007F0ADFE1A4B0F460646C3E9006741
S214000470184E324607F01EFF174B21681860174BC0
S214000480D3F800C0164BD3F804801B684FF47A727A
S214000490A3FB023002FB0800D6E900264FEA011E45
S2140004A00CEB01179B184CF80E3040EB06002B683F
S2140004B078600131BB602160BDE8F081001A002041
S2140004C0281A002000200840301A0020041A0020B5
S2140004D08013002090130020341E0020F419002002
S2140004E08813002070B51A4B86B001AA03F11006D7
S2140004F0144618685968154603C50833B3422A4699
S214000500F7D11B882B800B221248134D21460AF088
S214000510F2FA0246286018B11048214608F02EFB71
S2140005200C480AF0F9FD0246286018B10C4821462E
S21400053008F024FB3322074821460AF0DCFA02467C
S214000540286018B10548214608F018FB06B070BDB3
S21400055044C60000301100202C1A0020EBC5000015
S21400056026C6000010B5394C2068002394B0194602
S2140005700222806808F0A0FB2068002302221946A9
S214000580406808F099FB01F031F9FFF7ABFF3048FF
S214000590012102F0DBF92F48032103F083F92E48EE
S2140005A0012102F0D3F900241F2321468DF82E30B6
S2140005B02A488DF82C40FF23CDE90D448DF82D40B8
S2140005C08DF839308DF82F408DF830408DF8314059
S2140005D00F9402F021F801238DF8363003238DF8AE
S2140005E02F008DF8353020468B238DF838308DF867
S2140005F03A408DF8374002F0BBF80BA98DF82E0074
S214000600174802F029F816480DA901F091FF10AB23
S21400061008930223CDE906434FF480721923CDE9EF
S2140006200232104B019314230093CDE90444234671
S2140006300D4A0E490E4805F077FD9DF840301BB177
S2140006400C48EC210AF0A7FD14B010BDA81000203D
S2140006500042090005002400A00914000024F4004C
S21400066000200840341A0020BD02000056C60000D4
S214000670381E00206DC60000D0E9022152F8212065
S214000680034B1268D117C3E90021FFF76BBF00BF09
S2140006908813002008B5104B186806F03DFF0023AD
S2140006A009210122042003F037FF4FF4206008F0F0
S2140006B075F90A4B18600A4B19680A4B18680BF054
S2140006C054FA20B908484FF4C0710AF064FDBDE83A
S2140006D00840064808F0D8BA3C100020F41900205C
S2140006E028100020381000206DC6000085C60000C7
S2140006F010B588B9094C207882070CD4C30706D5F4
S214000700074A0849084801F0EDF801F045FA207854
S21400071000F0FE00207010BD0120FCE72011002034
S21400072040410500801A060000100F4010B9024B29
S214000730187870470120704720110020F8B50E4643
S21400074015461C4690B98BB10A4B1B78DB070FD4B5
S214000750094F294632463846013C01F0C1F914F0EB
S214000760FF0405F10105F4D12046F8BD0424FBE79B
S2140007700324F9E72011002000100F40F8B50E46BC
S21400078015461C46A0B99BB10C4B1B78DA0711D452
S2140007905B0711D40A4F294632463846013C01F021
S2140007A0CDF914F0FF0405F10105F4D12046F8BD9B
S2140007B00424FBE70324F9E70224F7E720110020CE
S2140007C000100F40D0B9104B187810F0010017D168
S2140007D0082913D8DFE801F016080C1012121212BE
S2140007E0050001221A7070474FF4007313607047BB
S2140007F04FF4007313807047FF23F7E70420704719
S21400080003207047084670472011002038B50023A3
S214000810C3704FF0FF338363044609F028FC0028BA
S2140008204BD1B4F83A524AF655239D4207D1264991
S2140008300B2204F13C000BF07CFC00283FD094F81F
S2140008403C30EB2B03D01833DBB2012B2ED84AF604
S21400085055239D4206D11D49082204F18E000BF057
S21400086068FC48B3B4F84730B3F5007F1ED194F85F
S2140008704930DBB15A1E1A4218D1B4F84A30ABB12F
S21400088094F84C30013B012B10D8B4F84D306BB1C6
S214000890B4F84F307F2B06D804F15C0009F01FFB3C
S2140008A0B0F5803F02D3B4F8523053B94AF655201B
S2140008B085420CBF0220032038BD0420FCE701203F
S2140008C0FAE70020F8E700BFCAC60000D6C6000058
S2140008D02DE9F043002385B00B600F46154609F05E
S2140008E059FB061EC0F2B281804B53F82640002CFE
S2140008F000F0AE813C60237805F0FE056BB16078B1
S214000900FFF714FFC70708D41DB110F0040500D088
S2140009100A25284605B0BDE8F0830023F0B2237010
S2140009206070FFF7E5FEC10700F194810DB1420744
S214000930EED400212046FFF769FF022840F0998098
S2140009406E4604F2022304F242213246184609F0AB
S214000950C6FA10338B4242F8040BF7D1002556F83E
S214000960041B00297DD02046FFF750FF012879D8C8
S2140009700128A26B40F0C08004F1470304F17C011B
S21400098013F8015B002D7BD18B42F9D1B4F8A4306B
S214000990B3F5807F74D194F8A830092B70D104F198
S2140009A0840009F09EFA4FF0FF33171841F100015A
S2140009B0BB4275EB010363D304F1900009F08FFA94
S2140009C094F8AA302062012BA37059D194F8A9900C
S2140009D003FA09F91FFA89F36381002B50D004F15A
S2140009E0980009F07CFA424B9842064648D8831C89
S2140009F0E361626204F1940009F071FA00EB020808
S214000A00C4F8308004F18C0009F069FA10441FFA2B
S214000A1089F206FB02F313EB080345EB05029F423F
S214000A2071EB0203A0622BD304F19C0009F057FA85
S214000A302E46E06265B96389B34221D9E16A204651
S214000A4009F06AFA8119204609F011FB98B90136B7
S214000A50631993F83C30812B14D02035C5F3080574
S214000A60E8E703200135042D7FF479AF042807D189
S214000A7001E0042801D101254BE701287FF678AF75
S214000A800D2546E705F1140004F13C06304409F054
S214000A9026FA01280546F3D9E3698342F0D961892D
S214000AA0236B821E02FB01336363A16A204601EBBF
S214000AB0D51109F0DCFA0028DDD105F07F0006EB41
S214000AC0800009F00CFA431C03D00135A842ECD094
S214000AD0D6E7C4E905000425064A257013880133C5
S214000AE09BB21380E380002513E700BFD81E0020CA
S214000AF0FDFFFF7F6C2C0020B4F84730B3F5007F75
S214000B00BED1B4F8526026B904F1600009F0E7F9E6
S214000B10064694F84C302662591E0129A370AFD8B9
S214000B2094F849506581002DAAD0691E2942A7D1A4
S214000B30B4F84D80A4F8088018F00F0FA0D1B4F8D0
S214000B404F0018B904F15C0009F0C9F9B4F84A106E
S214000B50002995D006FB03FE01EB181CF444604503
S214000B608ED3A0EB0C00A842B0FBF5F388D33E482A
S214000B70834285D84FF6F57083426DD903259F1CB6
S214000B80114402EB0C03032DE7616262A16223634A
S214000B904CD1B4F8663053EA08037FF471AF04F121
S214000BA0680009F09CF9BB00E06203F2FF13B6EBA5
S214000BB0532FFFF465AF4FF0FF33C4E90533032D21
S214000BC04FF08003237187D1B4F86C30012B83D1AA
S214000BD0511C204609F04BFA00287FF47DAFB4F88C
S214000BE03A2220714AF655239A427FF475AF04F1F3
S214000BF03C0009F074F91D4B98427FF46DAF04F584
S214000C00087009F06CF903F1FF5303F50053203325
S214000C1098427FF461AF04F5097009F060F9A061AD
S214000C2004F50A7009F05BF9606155E7B8F1000F4A
S214000C303FF426AF7144022D4FEA4703E1621EBF20
S214000C40D91907F0010303EB5103AEE70B2560E665
S214000C500C255EE603255CE640F6F575AB428CBFD8
S214000C60022501258BE700BFF5FFFF0F52526141B9
S214000C702DE9F8434FF0FF0807680646454604246A
S214000C804FF6FF79B16B11B9002C73D063E038468C
S214000C9009F0EDF9044600285DD1F06B0378002BCF
S214000CA06ED03A78042A11D1852B4DD1336BF3647C
S214000CB0304609F059FE044600284CD13B691B79A2
S214000CC003F03F03B3712046BDE8F883C27AE52BF4
S214000CD002F03F02B27143D02E2B41D022F0200109
S214000CE008293DD00F2A40D1590637D503F0BF0555
S214000CF0336B90F80D80F364437B434530D1428BD1
S214000D0072BB0378FC68DFF87CE023F040030D211B
S214000D10013B4B4301211EF801CB30F80CC009B350
S214000D20FF2B1DD824F813C06146013301320D2A6B
S214000D30F1D10278520605D521B1FF2B10D800223A
S214000D4024F81320013DEDB20021304609F086FD5F
S214000D500446002896D00023B363B4E7AB42CBD05A
S214000D60FF25F1E7CC45E1D0FAE72DB909F0EBF81D
S214000D70404501D10024A6E74FF0FF33F364A2E715
S214000D800424E8E7EFC600002DE9F04F002187B005
S214000D90D0F80090044609F056FA804670B999F8E3
S214000DA00030042B33D1D9F80C0009F022F907469D
S214000DB02046FFF75DFF054620B18046404607B057
S214000DC0BDE8F08FD9F810309A8CBA42F0D193F87B
S214000DD023B040265D4506D1D9F80C3033F81530DF
S214000DE0002BE5D1EAE7F10608BF0236D9F8103045
S214000DF0985B00F061FCD9F80C30824633F8150099
S214000E0000F05AFC8245D3D102360135E2E74FF0B6
S214000E10FF3B4FF0FF0AC4F84CB05546A16B48465E
S214000E2009F025F900285CD1E66B3778002F77D0DB
S214000E30F27AE52F02F03F03A37103D0120704D520
S214000E400F2B04D0C4F84CB04FE00F2B54D194F8BD
S214000E504B3058063FD4790645D5236B96F80DA03F
S214000E60E36407F0BF07737B53453ED1738B002BBB
S214000E703BD13578D9F80C30019305F03F050D23AA
S214000E80013D5D43284B012113F8012BB25A71B383
S214000E90FF2D059329D81046049200F00DFC6B1C1C
S214000EA00293019B039033F8150000F005FC0399AC
S214000EB081421AD1049A029D059B11461B4A934211
S214000EC0E2D133785A0604D519B1019B33F81530B0
S214000ED05BB97D1EEDB20021204609F0BFFC00285C
S214000EE09CD080466AE7BD42BDD0FF25F3E74FF6AB
S214000EF0FF708242E2D0F8E72DB9304609F023F8B9
S214000F0050453FF45BAF94F84B30DB079AD40B2286
S214000F1004F1400130460BF00CF9002892D14DE761
S214000F204FF004084AE700BFEFC60000FCC600000A
S214000F302DE9F04F90F84BB01BF0A00599B0044691
S214000F4040F094810668F26832F81530002B60D1C4
S214000F503378042B40F09D800F230E352046B5FBDA
S214000F60F3F5A91C09F0D8FC8146002840F08D80D6
S214000F70236B0135A3EB4515E379E5645A074AD59B
S214000F8023F00403E371204609F0BDFA00283ED1A1
S214000F90616B4FF0FF32204609F01FFA002836D169
S214000FA0A368002B37D023680493236A0693636AEA
S214000FB0A16A8DF8173004A823F0FF03CDE908399D
S214000FC0CDF82C90179109F03EF900BB04A809F063
S214000FD0CBFCE0B9D4E9042370894FF40071E0FB40
S214000FE001233069C4E90423383008F086FF3069ED
S214000FF0D4E90423283008F080FFE379326943F00F
S214001000010382F8213004A809F029FD18B18146B1
S2140010103BE0013598E7D6E90354402200212046FC
S2140010200BF0BFF885232370C02384F820300121FD
S21400103000231E4640224FF0C10C9E4604EB0108DA
S214001040571C04F802C004F807E0F0B2023221B1DF
S21400105035F8131009B10133DBB20F0AA15408F8B2
S21400106002700232D706F2D135F813700136002F1F
S214001070E6D184F82330831C6370284608F0B9FF55
S21400108084F82400000A84F82500484619B0BDE814
S214001090F08F04F1400797E807000DF1100A1BF0E7
S2140010A0010F8AE8070000F0E980402384F84B30FF
S2140010B04FF001089AE80700BC46F368ACE8030066
S2140010C02CF8022BB8F1050F4FEA12428CF80020DC
S2140010D05ED9981E424630F8021F002946D10DF10F
S2140010E00F0C072102F00F0909F13000392888BFDC
S2140010F009F137000CF80109481E96464FEA12120D
S2140011004AD0BEF10F0F45D800F160030DEB030285
S2140011104FF07E0C02F858CC0022A1F1020C90424F
S21400112002D9B95C202939D104F13F0C07289CBFAD
S21400113000F160030DEB030102F1010296BF11F806
S214001140581C20210130072A0CF80210EED9204640
S214001150FFF71AFE8146002840F08B8008F1010850
S214001160B8F1640FA6D14FF007098EE74FF0100CC8
S21400117001F0010E0EEB4202D30344BF82F4883224
S21400118082F02102BCF1010C4FEA5101F0D1A2E736
S2140011904246A4E70146A5E70121B5E780290AD91A
S2140011A09F2903D92031C9B21C2904D8944502F1DD
S2140011B00101B9D00A460132B1E7216B2046A1EB06
S2140011C0451109F040F8814600287FF45EAF3846A6
S2140011D008F0B9FE4FF6FF780190A16B304608F094
S2140011E046FF814600287FF450AFE36B019AD6F89D
S2140011F00CE05A73E9B24FF00F024FF00D0CDA72A2
S214001200DFF8DCA018734A1E0CFB02F29876D8763C
S21400121084461AF8019B404518BF3EF8120003F8B2
S214001220090003EB090B0CF1010C18BF01324FEA61
S2140012301029002808BF4046BCF10D0F8BF801901E
S214001240E7D1404502D03EF812200AB941F04001ED
S21400125019700123F3700021204609F0FFFA814639
S21400126000287FF412AF013DB7D11BE04FF006090E
S2140012700BE704287FF409AF84F84BB01BF0020F8D
S2140012801BBF0C350D210125B5FBF1F518BF013547
S2140012902946204609F040FB814600287FF4F5AE3B
S2140012A0013D8AD1A16B304608F0E1FE8146002858
S2140012B07FF4EBAE01462022E06B0AF072FF03CF0C
S2140012C0E36B18605960BA78398819819A7294F875
S2140012D04B30E26B03F0180313730123F370D4E66C
S2140012E0EFC600002DE9F04F85B003680193044671
S2140012F0884611F8013B2F2BFAD05C2BF8D0002142
S214001300A160E16198F800301F2B00F24B8180232A
S214001310204684F84B3005B0BDE8F04F08F093BF88
S21400132001F0E003C02B30D101F01F01012301338F
S2140013304344904618F8012B02F0C000802840F085
S214001340608102F03F02434542EA8111F2D1AF4A82
S214001350A1F18003934200F25481A1F55843B3F5FE
S214001360006FC0F04E81B1F5803FC0F02981A84AD9
S214001370A1F5803302EA8313C1F309011943394307
S2140013800B0C2BF8163001361AE101F0F003E02BB7
S21400139003D101F00F010223C9E701F0F803F02B97
S2140013A040F02F8101F007010323C0E7424613787F
S2140013B02F2B904602F10102F9D05C2BF7D01F2BA1
S2140013C08CBF00250425ABF10202A6BB00232BF838
S2140013D01630002E00F015813BF8131020291A460F
S2140013E003F10103F8D00AB92E2901D145F003050F
S2140013F0ABF1020131F816302E2B01D0013EF9D1A7
S2140014004FF020334FF0000963642364C4F847307C
S2140014104FF0080A4F463BF81210531C11B3202910
S21400142003D02E290FD19E4211D045F003051A464F
S214001430F1E70425C7E732F81630202B01D02E2B13
S214001440C4D1013EC1E7D14505D29E4249D1BAF189
S2140014500B0F3ED102E0BAF10B0F35D145F0030574
S2140014604FF00B0A94F84030E52B04BF052384F8B0
S2140014704030BAF1080F04BFBF00FFB207F00C03FC
S2140014800C2B03D007F00303032B01D145F0020514
S214001490AE0707D4F80748BF45F01005790748BFE0
S2140014A045F0080584F84B502046FFF76DFC94F88D
S2140014B04B3000285ED0042803D113F0040F08BF79
S2140014C0052005B0BDE8F08F9E4202D045F003052A
S2140014D0C8D3BF00FFB233464FF00B0A4FF00809DF
S2140014E0A5E77F2928D945F0020208460393029211
S2140014F000F0E2F84FF4697100F0B6F8FF28DDE975
S2140015000223014616D90AF1FF30814503D345F080
S2140015100305D1468BE704EB09000D0A80F840501E
S21400152009F10109154604EB090209F1010982F8DF
S21400153040107CE7154678B13648CDE902130AF02C
S21400154038FEDDE9021338B9A1F1410292B2192A38
S21400155006D847F00207E6E745F003055F21E2E715
S214001560A1F1610292B2192A9EBF203947F0010705
S21400157089B2D8E75A07A4D4A379DB0643D5019BE2
S2140015801878042833D1A36823622369E27923F00C
S214001590FF0313436362E36CA362019B2146186951
S2140015A009F08CFA23681C4FD3F80CB0DFF86C9067
S2140015B00026424612F8011B0B063FF5B1AE9046D8
S2140015C08DB21F2D7FF635AF2F2D3FF4EFAE5C2D7D
S2140015D03FF4ECAE7F2D04D8294648460AF0E9FDD4
S2140015E078B9FE2E0DD82BF816500136E1E7019B90
S2140015F0216B3C33C1F30801194409F074FAA0606A
S214001600D0E706205DE705205BE700BF7FFF100000
S2140016100000FF03E8C6000000DC00D8DFC60000BC
S2140016201FB5CDE9001003A81446039108F0B2FCDC
S214001630002815DB0B4A52F820300BB10021197038
S214001640019B0BB10021197042F820302CB100220A
S21400165001A96846FFF73CF90446204604B010BDD1
S2140016600B24FAE7D81E00207F28F0B501D880B2F8
S214001670F0BDB0F5803F16D2B1F5697F13D10C4EA0
S21400168083B241F6DD4410200021621A01EB5202BB
S214001690950036F822709F4207D02CBF144611469C
S2140016A00138F2D1E4E70020E2E7024BE85ADFE730
S2140016B0AAC90000ACC90000B0F5803FF0B522D240
S2140016C01F4A204983B2B0F5805F28BF0A46141D22
S2140016D034F8042C2146AAB1934213D334F8025CA2
S2140016E02E0AEFB252FA85F5A84222DA082E09D859
S2140016F0DFE806F0050A10121416181A1C00801AE5
S21400170034F810301846F0BD981A00F001001B1A85
S2140017109BB2F7E7103BFBE7203BF9E7303BF7E7E8
S2140017201A3BF5E70833F3E7503BF1E7A3F5E3533D
S214001730EEE70434002ECBD101EB4702C7E700BF2B
S214001740FCC60000EEC80000024A136801331360AE
S214001750704700BF1821002000487047000041383D
S21400176010B52048012101F0F1F8042210460123AB
S214001770072102F0D1FE1C4B8022C3F8CC200122A8
S214001780104600230A2102F0C7FE002305220F217F
S214001790042002F0C1FE012305220E21042002F0DF
S2140017A0BBFE002108460123052202F0B5FE0123F8
S2140017B019460522002002F0AFFE01230522022171
S2140017C0002002F0A9FE012305220321002002F0DA
S2140017D0A3FEBDE81040002305220921012002F0E7
S2140017E09BBE00BF00550A000080084610B50B4897
S2140017F0012101F0ABF8FFF7B3FF094909480022C1
S214001800FFF70EFF044628B10146074807F0B6F971
S214001810204610BD054807F037FAF9E740410500B5
S21400182061480100DC1E0020223D0100383D010019
S21400183010B5446A14F00104FBD1072902D1436AAB
S2140018409B07FCD48260C36823F4403300293FD052
S21400185037293AD0182907D8214ACA40D20734D4A3
S21400186007292CD002292DD029292ED008292FD897
S2140018704FF49472CA4012F0010F14BF4FF40032B6
S21400188000221343082914BF00224FF4C01223F489
S2140018906013072943EA02031CD00C2908BF4FF443
S2140018A00014234323F07F5343EA0161C160036BB6
S2140018B0DA07FCD50122036BDB070ED410BD4FF40C
S2140018C04032DEE74FF48032DBE74FF40032D8E7F1
S2140018D00022D6E74FF40014E3E70263EBE700BF0D
S2140018E040200201F7B504460D467248012116460F
S2140018F001F02CF8704BC4F81C380123C4F82038CB
S2140019003F23C4F824384FF40863C4F800386B4B00
S214001910C4F804386A4BC4F808386A4BC4F80C3864
S214001920694BC4F81038A3F54433C4F81438674B31
S214001930C4F81838664B6363304601F013FDB0FBFD
S214001940F5F0000240F60253002240F00500E06287
S2140019501146A3622046FFF76BFF4FF48072082102
S2140019602569FFF765FF23699D425A4D36D1AB784E
S2140019706FF3C303AB70AA7823696FF3041212F0F7
S2140019800806AA704DD0002237212046FFF750FFE8
S214001990002229212669FFF74BFF23699E420DD0BE
S2140019A04D4E2369002B26DAAB7813F0200F2B78E8
S2140019B00CBF0222032262F302032B7000220221D4
S2140019C02046FFF735FF00220321FFF731FF23698A
S2140019D02A681B0C63F3D2022A6052E0236B990339
S2140019E04FD4236B1A034CD42369DB0549D5AB7857
S2140019F043F00803BEE7002237212046FFF718FF12
S214001A0032462921FFF714FF2369AA789B0F63F358
S214001A1045122369AA701B0ED2B263F38612AA700F
S214001A20BFE7324637212046FFF702FF324629211C
S214001A302769FFF7FDFE23699F421ED0274E2369C4
S214001A40002BBBDB002237212046FFF7F1FE4FF4C8
S214001A5000222921FFF7ECFE2369AA789B0F63F387
S214001A6045122369AA702A689B0803F4800343F092
S214001A700103324013432B60E1E72B7866F3020341
S214001A802B702A68C2F3CF02204612040D21019261
S214001A90FFF7CEFE019A0721FFF7CAFE019A37210B
S214001AA0FFF7C6FE0222062103B0BDE8F040FFF7AE
S214001AB0BFBE00BF0045020001030001201CBA7F24
S214001AC0FA2305000000041802100408001002188B
S214001AD033003A001C21002000000851F8FFBFFF29
S214001AE0C36A43F47E03C3620123036320230363B4
S214001AF002230363436843F4007343600E4B816024
S214001B00C360036BDB07FCD501230363036B9906F5
S214001B10FCD52023036302F50073016A42F8041B18
S214001B209342FAD1036B9A07FCD50222036B9B07FC
S214001B3000D470470263F9E710002211C36A43F429
S214001B407E03C3620123036310230363022303633C
S214001B50436843F4007343600E4B8160C360036BBD
S214001B60DB07FCD501230363036BD906FCD51023E2
S214001B70036302F5007352F8041B01629342FAD124
S214001B80036B9A07FCD50222036B9B0700D47047B1
S214001B900263F9E700002218024B187800F00700ED
S214001BA0704700BF1C21002030B5124C124B226833
S214001BB0124D1A608BB0124B2B60124B009305F03F
S214001BC0E1FC2B680293104B0393104B0493104BCD
S214001BD005934FF4C8621923CDE90623002132236A
S214001BE0CDE9081301906946206804F065FF0BB044
S214001BF030BD00BF38100020442C0020402C0020B0
S214001C002C1000204D3D0100EC2100202421002056
S214001C109813002038B501F011FE1248124C01212D
S214001C2000F094FE01221146002001F073FD02250B
S214001C3001221146C4F88050002001F06BFD0122FD
S214001C401146C4F88450002001F064FD0122C4F857
S214001C508C501146002001F05DFDC4F8885000202D
S214001C6038BD00BF30053E0000400E4008B54FF0BE
S214001C70804301225A6403F564231D49D3F8B0203B
S214001C8042F00102C3F8B020D3F8E02042F0080288
S214001C90C3F8E0204A6B42F480524A63D3F8E0204F
S214001CA022F00802C3F8E020D3F8B02022F00102A8
S214001CB0C3F8B0200F4AD2F8A43143F4F843C2F870
S214001CC0A43105F00BFC00F085F805F0AFFB05F03D
S214001CD0C3FB05F0EFFBFFF79DFF0AF02FF900F0BE
S214001CE06DF809F01FFBBDE8084002F0F9BF00BF21
S214001CF00040054000300E4030B51D4D0FCD97B06A
S214001D000FAC0FC495E807001A4B84E807001A4A80
S214001D10CDE90323194B002110220BA8CDE905318C
S214001D20CDE907110AF03DFA154B16484FF4881115
S214001D30CDE9091332238DF82C3033238DF82D305E
S214001D40114B0C9320230D9301238DF839300F4B44
S214001D5000930FAA03AB09A905F0F4FF044618B1D7
S214001D600B48852109F017FA204617B030BD00BF92
S214001D70903D010000C2040000140140040804095C
S214001D801C140140542500207A2C0020AC2400208E
S214001D905F3D010008B5FFF7AFFF28B1BDE808407A
S214001DA00248972109F0F7B908BD00BF5F3D010062
S214001DB0014806F07DB800BF5425002008B5044849
S214001DC0012100F0C3FDBDE8084009F0BFB900BF1F
S214001DD000550A000148012100F0B8BD00550A0070
S214001DE008B500F093F8124B12498B4212D3124BEF
S214001DF0124900208B4218D3FEF726FA186850F8CE
S214001E002240586840F82240013298688242F5D352
S214001E100C33EAE70022F8E71C6844F82200013297
S214001E205C68A242F8D30833E4E70022F8E700BF74
S214001E30404C01004C4C01004C4C01004C4C010045
S214001E400048704700A24A04174AD2F8943003F0BC
S214001E500703023B042B1FD8DFE803F00620031A13
S214001E600800124B1B680AE0114BFBE79368C3F3AC
S214001E700443073B072B14D80E4A52F823300A4A6D
S214001E80D2F80001C0F304200130B3FBF0F0704735
S214001E90094B1B685B08F2E7074BE3E74FF4004388
S214001EA0EDE70023EBE700BF00400E404C1000209B
S214001EB044100020AC3D01004810002008B5FFF794
S214001EC0C3FF054BD3F80831C3F308230133B0FB37
S214001ED0F3F0024B186008BD00400E404010002092
S214001EE0014B1868704700BF44100020054B18606F
S214001EF0054BD3F8943003F00703022B01D1FFF70C
S214001F00DDBF70474410002000400E40044B054AD9
S214001F109A60D3F8882042F47002C3F8882070478D
S214001F2000ED00E000000000014B1868704700BF9D
S214001F304C10002038B504460D4601B118B90448C7
S214001F40372109F028F923682B60256038BD00BFCB
S214001F50CC3D010070B5D0B1C9B10E4E431E01395B
S214001F6013F8014FA25D02F00302012A11F8012FB7
S214001F70B55C05F00305204608BF04F12000012DDE
S214001F8008BF2032801A01D1002CE9D170BD012093
S214001F90FCE700BF9E4A010005490A681318054879
S214001FA083428CBF4FF0FF320B601046704700BF75
S214001FB050100020000008202DE9F04F9A46554B9F
S214001FC085B01B78DDF83C909DF844B0DDF8508075
S214001FD006460F461546002B00F08B80172A00F2A7
S214001FE08A800E9B002B00F08680B9F1000F00F06F
S214001FF08280129BB3F5006F7DDC012802D1109B16
S214002000002B78D0444B03EB05131B7B002B74D0BE
S214002010424C1022002168460AF0C3F804EB45142F
S2140020201022002F57D1394620460AF0BAF843F25C
S21400203010036380BBF1000F03D1E37843F0030382
S214002040E370364A0E9BCDF800A002EB451CCCE9A7
S2140020500193129B013BC3F30A009DF84C306901C3
S21400206003F003039B0643EA001E53582C4818400F
S2140020704EEA0003012E535041D11323CCF80C3006
S2140020809CE80F000CF1100E8EE80F00DCF81C2008
S214002090109BCCF814306FF0030161F39F02012F00
S2140020A0CCF81C2003D1CCF81890CCF804301A4A8F
S2140020B0290102EB051342F801800027159A5A60A1
S2140020C028469F605E732246694602F0DBFA384671
S2140020D005B0BDE8F08F002120460AF062F84FF404
S2140020E044736380BBF1000FABD1E37843F0300359
S2140020F0A6E70C48ECE70C48EAE70C48E8E7B8F136
S214002100000FD4D19CF8023068F304138CF8023028
S214002110CDE700BF9A2C002074250020F42600206E
S2140021200F80FFF3028000F0018000F0078000F0CF
S21400213038B5124B1B780546DBB1E0B109F0C6F89E
S2140021400F4A00231146147B54B92B601A0101EB89
S214002150031301258C501D7309F0BEF8204638BDC8
S2140021600133182B02F11002EDD109F0B5F805483D
S214002170F5E70548F3E70548F1E700BF9A2C00208D
S21400218074250020048000F0028000F0018000F03A
S21400219013B509F09BF80C4A0023147B7CB9013375
S2140021A0182B02F11002F8D1019002F0FBF9074B50
S2140021B001981C7009F090F8204602B010BD09F096
S2140021C08BF80348F9E700BF742500209A2C0020FE
S2140021D0058000F00D4B1B7810B5044693B1172808
S2140021E012D809F073F80A4B03EB04131A7B2AB1D2
S2140021F000241C7309F070F8204610BD09F06CF836
S2140022000448FAE70448F8E70448F6E79A2C002062
S21400221074250020068000F0028000F0018000F0A7
S21400222013B5134B1868019000238DF8043009F09D
S2140022304DF8104B1C7824B109F04EF80E4802B049
S21400224010BD01221A7009F047F80C4A23462146B1
S2140022500133182B117302F11002F9D104230DEB90
S21400226003008DF8073002F0CDF90020E7E700BF45
S2140022701A3E01009A2C0020038000F074250020EE
S2140022800A4A127808B55AB117280BD8084A02EB42
S21400229000131B7B43B1002102F098F9002008BD13
S2140022A00448FCE70448FAE70448F8E79A2C0020BC
S2140022B074250020028000F0018000F0078000F006
S2140022C00A4A127808B55AB117280BD8084A02EB02
S2140022D000131B7B43B1012102F078F9002008BDF2
S2140022E00448FCE70448FAE70448F8E79A2C00207C
S2140022F074250020028000F0018000F0078000F0C6
S2140023000A4A127808B552B117280AD8084A02EBCA
S21400231000131B7B3BB102F03BFA002008BD0548CA
S214002320FCE70548FAE70548F8E700BF9A2C0020C6
S21400233074250020028000F0018000F0078000F085
S2140023400D4B1B7893B1172812D889B10B4B03EBB2
S21400235000131B7B73B10A4B1A6E012303FA00F0BD
S21400236010401ABF00200B70087070470548704771
S21400237005487047054870479A2C002074250020B1
S21400238000200040028000F0018000F0078000F08E
S2140023900B4A127810B50C4662B117280CD859B102
S2140023A0084A02EB00131B7B43B102F011FA2070BF
S2140023B0002010BD0448FCE70448FAE70448F8E7A4
S2140023C09A2C002074250020028000F0018000F086
S2140023D0078000F02DE9F843DFF86480D8F86070D5
S2140023E0D8F86C301F4000D5FEE7144CDFF8549048
S2140023F001260025374217D02368C8F868609BB1CD
S214002400A16862680131A16028469847637B012B6A
S2140024100AD148B909EB45131A7B60F341021A73D7
S2140024201A7F60F341021A770135182D4FEA4606E7
S21400243004F11004DED1BDE8F88300BF7425002047
S21400244000200040F4260020344B002AF0B5344D1E
S214002450446B08BF1D46334B14BF10260026984217
S2140024600ED003F58063984239D12F4F062909D83C
S214002470062909D8DFE801F00A15233408084100C8
S2140024802A4FF3E781293DD0002324E03B683A68D1
S21400249003F4FE4302F00F021A433B6803F0F00316
S2140024A00BE03B6839683A681B0C120C02F0F0022D
S2140024B003F4FE431343C1F3034213430BE07B686C
S2140024C079687A6803F4FE4301F00F01194302F0BD
S2140024D0F00242EA0103B3402C4023434363F0BDBD
S2140024E07A6879687B68120C1B0C03F0F00302F420
S2140024F0FE421A43C1F30343DFE7BA68BB6802F043
S2140025000F02CBE77B687A6803F4FE4302F00F0203
S21400251013437A6802F0F002CFE700BF0080FFFFA7
S214002520FFFF0080002008402082E00F1082E00FAE
S21400253038B5374B984205460C4608D003F58063FD
S214002540984204D033484FF4547108F024FE022316
S214002550AB60A17800222846FFF776FF20796178E5
S2140025606279030243EA016343EA0243E27843EAFC
S214002570C203E2790AB143F00053227A0AB143F06B
S2140025800403A2790AB143F00203627A0AB143F067
S2140025900103F328A27806D12AB903299CBF23F0A9
S2140025A0706343F0806351B20029ACBF43EA421324
S2140025B043F0E0032B616B69002923F4791323F0C1
S2140025C00703BCBF22F080021343227843EA42434B
S2140025D0E27A0AB143F480436B616B0103F18443F2
S2140025E0A27A9A60EB6FD5F880201A4204D0094888
S2140025F04FF46E7108F0CFFDEB6813F4406F06D011
S214002600BDE83840034840F2B93108F0C4BD38BDD3
S214002610002008401E3E0100B0F5FA4F10B50C4CE5
S21400262038BF4FF4FA40844228BF044619B9094817
S21400263000F098FE0146601E0144A142B1FBF4F092
S21400264028BF00F1FF307F2828BF7F20C0B210BD12
S2140026500024F4006041090070B53D4BCD789842E7
S21400266004460E4608D003F58063984204D03948E5
S2140026704FF4BD7108F08FFD002D41D12946364834
S214002680FFF7CAFF05460A23A3603278737843EA49
S2140026900263B278120402F4FE022D02134305F41C
S2140026A0FE451D4333790BB145F01005256075795D
S2140026B008F005FE23685D4005F0C0055D40256016
S2140026C008F001FE23681B0640D5244B244E2548FF
S2140026D0B44208BF184600F045FE1D4B9C42054616
S2140026E029D1214800F03EFE05EB4505B0EB550F1D
S2140026F02CD2BDE8704017484FF4DC7108F04BBD93
S214002700216811F08001BED11348FFF785FFA8426B
S21400271004D9104840F2851108F03DFD00214FF421
S214002720FA40FFF779FFA842ADD20A484FF4C371CA
S21400273008F031FDA7E7B44201D10C48D2E70548BE
S2140027404FF4DB7108F027FD0020CDE770BD00BF19
S214002750002008401E3E01000024F400B9003400AA
S21400276000240840B8003200004209000052090068
S21400277008B528B9074800F0F5FD012838BF012044
S21400278000F57420044B00F23F20B0FBF3F0013854
S214002790C0B208BD6041090040420F000C4B984291
S2140027A010D90C4B984210D9022201230A490B6417
S2140027B00A49D1F8003123F0407343EA0263C1F8B6
S2140027C00031704700221346F0E70122FBE700BF06
S2140027D00048E8010090D0030000C84300400E40C7
S2140027E038B54FF0804300225B68104BC9B21C46D8
S2140027F01D798D4202D11D68854213D20132072A07
S21400280003F10803F4D10A4841F2BD6108F0C3FCA5
S21400281003224FF080414B6823F0407343EA026383
S2140028204B6038BD04EBC2025279F2E78C3F0100E0
S214002830693E01001F2810B5044604D903484FF42A
S214002840B67108F0A8FC0120A04010BDB43E0100FF
S214002850044BDB6B5B0604D4034AD2F8C830002B6B
S214002860FBD1704700300E400000C64308B5FFF7A6
S214002870EFFF024B5868C0F3014008BD00300E4021
S214002880044BD3F84421D20703D4D3F84021104296
S214002890FBD1704700400E40B0F5004F38B50546F6
S2140028A004D30C4840F62F6108F075FC6C1C14BF6E
S2140028B0B4FA84F42024C4F11F042046FFF7BAFFBC
S2140028C00138A84204D0034840F6366108F063FC9D
S2140028D0204638BD033F01004FF0804341F6713279
S2140028E070B51E6C1A6405460C46FFF779FF134A4E
S2140028F0134B022C08BF13469D42124AB6B209D9A2
S2140029004FF08C43C3F800210F4A954207D84FF08A
S214002910884306E04FF08843C3F80021F7E7002C11
S214002920F5D14FF480521A6041F671339E421EBFB5
S2140029304FF0804300221A6470BD00BF0024F400EC
S21400294080D543020202020080F0FA02C0F303229E
S214002950013A38B503460E2A3AD8DFE802F040437B
S2140029603939081B1E212536292E391833001F4CED
S2140029700020C3F3043508B1FFF782FF04F1424498
S21400298004F5801405EBC404A400216038BD184C7F
S2140029900020EEE7174C0120EBE7174C1020E8E785
S2140029A0164C4FF48070E4E7154C4FF48030E0E7A7
S2140029B0144C81F001010020DBE7134C81F001018B
S2140029C00020D6E7114C0020D3E7114C0020D0E7BA
S2140029D0BDE838400F4841F6594108F0DCBB0E4CC4
S2140029E00020C6E70D4C0020C3E700BFB0400E40F5
S2140029F0C4400E40E0400E40E8400E40EC400E4022
S214002A00F0400E4060410E4064410E40F0410E40E2
S214002A1050410E40693E010000400E40C0400E404E
S214002A2008B5C0F30313013B0B2B00F2AB80DFE8C5
S214002A3003F0060C101A2024282C668692A5534B09
S214002A40D3F80001C0F3042008BD504BD3F814019E
S214002A50F8E74E4BD3F80001C0F301600130FFF7F2
S214002A60E9FE0138F0E7494BD3F80C01C0F3082023
S214002A70EAE7464BD3F81801F8E7444BD3F81C01B5
S214002A80F4E7424BD3F80801F0E7414B98422AD0CE
S214002A900ED8A3F5BA2398422BD003F5703398428C
S214002AA015D041F6FD513B4808F075FB0020CBE7FA
S214002AB0394B984205D0394B98420ED0384B984245
S214002AC0EFD1324BD3F82001C0F30230C7E72F4BCB
S214002AD0D3F8200100F00F00C1E72C4BD3F82001FB
S214002AE0C0F30120BBE7294BD3F82001C0F3031045
S214002AF0B5E7264BD3F82001C0F30340AFE7294BD8
S214002B0098420CD003F5A11398420ED0264B98425B
S214002B1012D11E4BD3F8280100F003009FE71B4B91
S214002B20D3F82801C0F3011099E7184BD3F8280111
S214002B30C0F30130043092E741F62161B3E71B4B46
S214002B40984205D1114BD3F8300100F003007BE723
S214002B5041F63061A7E7164B984205D0154B9842D0
S214002B6006D041F648619EE7084BD3F85C01ECE7D7
S214002B70064BD3F85C01C0F3014065E7034BD3F87E
S214002B80040173E741F655618DE700BF00400E4033
S214002B9080161800693E010000362C0080262E00A4
S214002BA080002A0090171C0090071A00A009140045
S214002BB0B8003200B9003400C0F30313013B10B56F
S214002BC00C460B2B00F21882DFE813F00C003400E2
S214002BD045006000740088009C00BC006101CE01C6
S214002BE0DA0102021F2904D9C44841F67E6108F0C2
S214002BF0D2FA08F04DFBC248FFF7D0FD00F00AFA03
S214002C00C04BD3F8001121F4F85141EA0424C3F86C
S214002C100041FFF753F90446FFF728FE0146204619
S214002C20FFF75AFEFFF710F9FFF7B8FDBDE81040B2
S214002C3000F006BA1F2904D9B04841F6946108F09E
S214002C40AAFAB04BD3F8141121F4F85141EA04243F
S214002C50C3F8144110BD4B1EB3F5004F0DD2B4FAA5
S214002C6084F1A84BD3F80041C1F11F0124F0407451
S214002C7044EA0164C3F80041ECE7A34840F63F513C
S214002C8008F089FA002CEAD12021EAE7B1F5007FA6
S214002C9004D39A4841F6A16108F07DFA994BD3F81F
S214002CA00C1121F4FF3121F4807141EA0421C3F8AC
S214002CB00C11CFE7B1F5007F04D3904841F6A86128
S214002CC008F069FA8F4BD3F8181121F4FF3121F47C
S214002CD0807141EA0421C3F81811BBE7B1F5007F03
S214002CE004D3864841F6B06108F055FA854BD3F810
S214002CF01C1121F4FF3121F4807141EA0421C3F84C
S214002D001C11A7E7B1F5007F04D37C4841F6B761F4
S214002D1008F041FA08F0BCFA7A4BD3F8081121F40F
S214002D20FF3121F4807141EA0421C3F80811FFF74E
S214002D30C5F80446FFF79AFD01462046BDE8104058
S214002D40FFF7CABD714B984274D010D8704B9842AA
S214002D5046D0704B984257D0A3F57033984226D091
S214002D6041F63371BDE81040644808F014BA6A4B67
S214002D70984205D0694B984273D0694B9842EFD180
S214002D80B4F5004F04D95D4841F6257108F003FA02
S214002D902046FFF781FD01460420FFF771FD594AE2
S214002DA0D2F8203123F4E04343EA013315E0B1F5CD
S214002DB0004F04D9514841F6C96108F0ECF92046A5
S214002DC0FFF76AFD01460420FFF75AFD4D4AD2F888
S214002DD0203123F4702343EA0143C2F8203139E757
S214002DE0022904D941F6DA61444808F0D4F94FF4D0
S214002DF08020FFF745FD434BD3F8301121F0030147
S214002E000C43C3F8304125E7B1F5004F04D93B48E1
S214002E1041F6F76108F0BFF92046FFF73DFD014691
S214002E200420FFF72DFD374AD2F8203123F00F0398
S214002E300B43D2E7B1F5004F04D9304841F606718E
S214002E4008F0A9F92046FFF727FD01460420FFF702
S214002E5017FD2C4AD2F8203123F0F00343EA011381
S214002E60BBE7082904D9254841F6157108F093F9FF
S214002E702046FFF711FD01460420FFF701FD214A19
S214002E80D2F8203123F4407343EA0123A5E7254B0B
S214002E9098421DD003F5A113984247D0224B984282
S214002EA05FD1082904D9154841F63C7108F073F93A
S214002EB02046FFF7F1FC01464020FFF7E1FC114AEF
S214002EC0D2F8283123F003030B43C2F82831C1E6B9
S214002ED0082904D9094841F64B7108F05CF92046E8
S214002EE0FFF7DAFC01464020FFF7CAFC054AD2F895
S214002EF0283123F0300343EA0113E6E7693E010078
S214002F000148E80100400E40033F0100801618000B
S214002F10A00914008006160000362C0080262E001D
S214002F2080002A0090171C0090071A00A1F10F03DA
S214002F30702B04D9324841F65A7108F02CF9204615
S214002F40FFF7AAFC01464020FFF79AFC2D4AD2F86C
S214002F502801043920F4405040EA0130C2F8280124
S214002F6078E641F66971FDE6274B984205D10229BD
S214002F707FF63DAF41F6737136E741F68371F1E6B1
S214002F80224B984205D0224B984212D041F69C71B3
S214002F90E8E6032904D91A4841F68E7108F0FBF8D2
S214002FA0184BD3F85C1121F003010C43C3F85C41C5
S214002FB050E6032904D9124841F6967108F0EBF85A
S214002FC0104BD3F85C1121F4403141EA0444EDE79C
S214002FD0B1F5007F04D30A4841F6A47108F0DBF887
S214002FE0084BD3F8041121F4FF3121F4807141EA33
S214002FF00421C3F804112DE641F6AB71B2E600BF1A
S214003000693E010000400E40A0091400B8003200DE
S214003010B900340008B507480321FFF7CDFD064880
S2140030200321FFF7C9FDBDE8084004480321FFF768
S214003030C3BD00BF40410500504107006041090084
S21400304037B5FEF701FF0446FFF710FC022817D13C
S214003050194B1A481A491C449C42B4FBF1F188BF2C
S21400306001F1FF310191FFF7A7FD01991548FFF720
S214003070A3FD0199144803B0BDE83040FFF79CBD9E
S214003080124B134D0D48E2189A42B2FBF5F588BF75
S21400309005F1FF352946FFF78FFD0B482946FFF758
S2140030A08BFD0C4B0C4907481C449C42B4FBF1F1C9
S2140030B088BF01F1FF31DEE7FF2C310140410500FA
S2140030C0002D310150410700604109007FF0FA02EF
S2140030D080F0FA02FFA14A0400A24A0400F00F00A2
S2140030E0013808B50B2879D8DFE800F006111B2F49
S2140030F025397843515F6B6F414BD3F8943003F01A
S2140031000703023B052B76D83E4AD05C30E03C4BAA
S214003110D3F8803003F00703013B032B6DD83A4AFF
S214003120F3E7374BD3F8843003F00703013B032B58
S21400313063D8364AE9E7324BD3F8883003F0070302
S214003140013B032B59D8324ADFE72D4BD3F88C309E
S21400315003F00703013B032B4FD82E4AD5E7284B35
S2140031601B6F13F0030340D0012B14BF012009206E
S21400317008BD234BD3F85C3103F03003202B36D048
S214003180302B36D0102B14BF01200720F0E71C4B45
S214003190D3F85C3103F44013B3F5001F27D0B3F522
S2140031A0401F26D0B3F5801FEDE7154BD3F860011E
S2140031B000F00300431E022B1DD800EB4000013038
S2140031C0D6E70F4BD3F86401F2E70D4BD3F8F03196
S2140031D003F00703052B10D80F4A96E70F4842F274
S2140031E0AA1107F0D8FF0020C2E70720C0E7042096
S2140031F0BEE70820BCE70520BAE70120B8E700BF15
S21400320000400E40513F0100573F01005B3F010068
S214003210573F0100573F01005F3F0100693E010034
S21400322038B5314B984205460BD01ED82F4B9842E6
S21400323007D02F4B9D4204D02E4841F2BC7107F0B8
S214003240AAFF2846FFF74AFF274B9D42044625D093
S2140032500DD8264B9D4211D0254B9D421AD02548AD
S21400326041F2EB7107F097FF0DE0234BE2E7224BAC
S2140032709D42F4D1214BD3F8884002E01F4BD3F88F
S214003280804004F00704042C27D8DFE804F0240B61
S2140032900F171300194BD3F88440F2E7174BD3F8F7
S2140032A08C40EEE7BDE8384007F06FBFBDE8384019
S2140032B0FEF73ABEBDE8384007F06ABFFEF7C4FD29
S2140032C00E4B0446D3F80001C0F301600130FFF74F
S2140032D0B1FAB4FBF0F4204638BD064841F63D018D
S2140032E007F059FF0024F6E70400220002001E0043
S2140032F003002000693E01000500240000400E4047
S214003300012808B514BF12481248FFF7E7FE013837
S214003310072816D8DFE800F01A1515071515040B50
S2140033200D4B186808BDBDE80840FEF7D9BDFEF78E
S2140033308BFD0A4BD3F80031C3F3042303FB0000D4
S214003340F0E7074841F2B65107F025FF0020E9E70D
S214003350B8003200B90034005410002000400E407F
S214003360693E010038B500F47813B3F5E01F054652
S21400337000F0FC804CD8B3F5602F00F0108123D805
S214003380B3F5C02F00F0A1800DD8B3F5003F00F0D4
S214003390A880B3F5802F00F08D80002B00F0078109
S2140033A041F6895109E1B3F5202F00F09480B3F57A
S2140033B0402F00F09C80B3F5002FF1D1FEF744FDBE
S2140033C0B14BD3F81C317AE0B3F5B01F00F0AA80F9
S2140033D00DD8B3F5901F00F09280B3F5A01F00F053
S2140033E09880B3F5801FDBD1A84B18686CE0B3F566
S2140033F0C01F00F0A580B3F5D01FD1D1A448FFF7B9
S2140034000FFFA14B0446D3F8280100F0030092E01A
S214003410B3F5401F00F0B48024D8B3F5201F00F0A9
S214003420BA800FD8B3F5001F00F09E80B3F5101FCA
S21400343000F0B380B3F5F01FB2D19648BDE838402F
S214003440FFF7EEBEB3F5281F00F08480B3F5381FF3
S214003450A6D19048FFF7E4FE8B4BD3F82031C3F398
S214003460012354E0B3F5601F00F0CF8013D8B3F506
S214003470501F00F0A780B3F5581F00F0AC80B3F5DE
S214003480481F8DD10020FFF73BFF7F4BD3F85C3100
S21400349003F0030315E0B3F5681F00F0D080B3F522
S2140034A0781F7FF47DAFFEF7CFFC0446284607F072
S2140034B001FF42E0FEF7C8FC734BD3F80C31C3F3B0
S2140034C008230133B0FBF3F038BDFEF7BDFC6E4BAE
S2140034D0D3F81831F3E7FEF7B7FC6B4BD3F804319B
S2140034E0EDE7FEF7B1FC684BD3F80831E7E7FEF7E7
S2140034F0ABFC654BD3F81431C3F30423E1E765480E
S214003500FFF78EFE604BD3F82031C3F30343D84059
S214003510DAE76148FFF784FE5B4BD3F8303103F0FF
S2140035200303F4E75B48FFF77BFE574B0446D3F8EC
S214003530200100F00F00FFF77DF9B4FBF0F0C3E7C1
S2140035405448FFF76DFE504B0446D3F82001C0F3F5
S2140035500310F0E74F48FFF763FE4B4B0446D3F8E3
S2140035602001C0F30230E6E7494867E74848FFF71E
S21400357057FE454B0446D3F82801C0F30110DAE79E
S2140035804348FFF74DFE404B0446D3F82801C0F3EE
S21400359001300430CFE7414850E73F484EE7404807
S2140035A0FFF79CFD07283FF41FAF092803D1BDE8AD
S2140035B03840FEF749BC41F27F513A4807F0EBFD30
S2140035C0002081E70120FFF79BFE2F4BD3F85C31EC
S2140035D0C3F3014375E73448FFF780FD0438062837
S2140035E010D801A353F820F05D3600006D360000B9
S2140035F005360000E93300000536000005360000F9
S214003600593600004FF4AF51D7E72848FFF766FD5C
S2140036100438062810D801A353F820F05D360000C1
S2140036206D36000039360000E933000039360000F8
S214003630393600005936000041F21261BDE71C48D9
S214003640FFF74CFD023809281AD8DFE800F01115FC
S214003650070F19191919050B164BC6E6BDE83840B1
S214003660FEF73EBCFEF73CFC40002DE7124BBCE6E6
S214003670BDE83840FEF758BCBDE8384007F085BDC9
S21400368041F2696199E700BF00400E4054100020E7
S2140036900300200002001E00050024000400220093
S2140036A006000E00693E01000A7B36000B7C3800DF
S2140036B00C7F3A005810002048100020014B18805C
S2140036C0704700BF0C110020022838B50C4604D005
S2140036D00D4842F67F3107F05EFD0C4D6B6AC3F372
S2140036E00113012B0DD064B1074842F69A3107F05A
S2140036F052FD074BD5F8902033EA0202FAD101209A
S21400370038BD4FF48003F5E7693E010000400E40E7
S214003710FF3F473A05282DE9F04704460F469146F5
S2140037201FD83E4B3E4A13F800A03E4B13F80080CD
S214003730F1B93D4B33F810301366012303FA08F84D
S214003740D2F8903013EA080FFAD1B9F1000F61D021
S2140037500125334A05FA0AF5D2F890302B42FBD100
S21400376058E0BDE8F047314842F6642107F013BD43
S2140037702F4B022833F810604ED1536AC3F301135F
S214003780012B49D12B4BDB6B5B0504D4274842F653
S214003790732107F000FD224A536A03F00303032B4C
S2140037A005D1536A23F0300343F020035362224DC1
S2140037B01B4BA8441E664FEA8808D8F80030002B3A
S2140037C0FBD0B9F1000F25D05544AD002B68002B77
S2140037D0FCD0022C1ED1EFB1114B5B6A03F0030341
S2140037E0032B03D000212046FFF76EFF0F4842F65A
S2140037F0F02107F0D0FC012200210220FFF78AFF0B
S2140038000A4842F6673107F0C6FC054B1E662B6871
S214003810002BFCD0BDE8F0870027C8E7653F010015
S21400382000400E406B3F01007E3F0100693E0100F4
S214003830723F010000300E408004F21038B5FEF7EB
S2140038404FFB0021044600F0BFFB1448FEF7A6FF1E
S214003850012211460220FFF75DFF07F019FDFFF772
S214003860D9FB0CB1FEF7F4FF0D4B02225A67FEF7A8
S214003870EBFAFEF793FFFEF721FB0546FEF7F6FF91
S21400388001462846FFF728F81CB90121204600F01B
S2140038909BFBBDE83840FFF7D3BB00BF0148E801FB
S2140038A000400E40112838B50C4613D000F00F002B
S2140038B001380B2800F2EA81DFE810F029007100D9
S2140038C0B2008D00AE00CC00E801DA00010126014E
S2140038D056019A01042913D1FEF702FB0546B0B142
S2140038E00021284600F070FB023C0C2C49D8DFE88B
S2140038F004F0514E353B484848481048414B540068
S214003900052904D1B04B1D68B04B9D42E8D8002570
S214003910EAE70520062401221146FFF7FBFE07F022
S214003920B7FCFFF777FB0DB1FEF792FFA84B5C677D
S214003930FEF7C4FA0446FEF787FAFEF72FFFFEF7F7
S21400394095FF01462046FEF7C7FF1DB90121284610
S21400395000F03AFBBDE83840FFF772BB9D48FEF723
S2140039601DFF02200446D6E79A48FEF717FF0124FB
S2140039700320D0E742F2D831BDE83840964807F039
S2140039800ABC42F2DD31F7E703200524C3E7012035
S2140039900324C0E700200424BDE70724BFE7062968
S2140039A040D18D488D4D42F21C4107F0F4FB8A4809
S2140039B042F2244107F0EFFB874842F22C4107F021
S2140039C0EAFBFEF741FAFEF7E9FE854B0122C3F853
S2140039D00026032329E00629824DE8D0013C0B2C63
S2140039E033D801A353F824F0513A00002F3A0000D0
S2140039F03D3A00004B3A00004B3A0000C339000045
S214003A004B3A00004B3A00004B3A00004B3A00009D
S214003A104B3A0000293A00000629734DDED1CBE769
S214003A20724DDBE76D4DD9E704232B6038BD0122CC
S214003A3011460020FFF76EFE0223F6E7012211462C
S214003A401046FFF767FE0123EFE742F2574193E780
S214003A500023EAE7072904D0092906D042F2E1410B
S214003A608AE75B4B00221A67E0E7594B0122FAE728
S214003A704C1E072C1ED8DFE804F0201D1D161D1D49
S214003A800F0403225249D1F85C3123F0300343EA95
S214003A900213C1F85C31C9E7012211460420FFF782
S214003AA039FE0122EEE7012211460220FFF732FE20
S214003AB00222E7E742F23F515EE70022E2E74C1EB1
S214003AC0072C1CD8DFE804F01E1B1B141B1B0D0460
S214003AD003223F49D1F85C3123F4401343EA0253F2
S214003AE0D7E7012211460420FFF714FE0122F0E773
S214003AF0012211460220FFF70DFE0222E9E742F2FC
S214003B00625139E70022E4E70C1F062C29D8DFE8CB
S214003B1004F01304281A2828210001221146032045
S214003B20FFF7F8FD00222A49D1F8603123F003039D
S214003B301343C1F8603179E7012211460220FFF7EE
S214003B40E9FD0122EFE7012211460420FFF7E2FD1E
S214003B500222E8E7012211460520FFF7DBFD0322DB
S214003B60E1E742F2895107E70C1F062C29D8DFE867
S214003B7004F01304281A28282100012211460320E5
S214003B80FFF7C8FD00221249D1F8643123F0030381
S214003B901343C1F8643149E7012211460220FFF7BA
S214003BA0B9FD0122EFE7012211460420FFF7B2FD1E
S214003BB00222E8E7012211460520FFF7ABFD0322AB
S214003BC0E1E742F2B051D7E648100020002D31015F
S214003BD000400E400148E801693E010080400E406A
S214003BE00010C8438C400E4088400E4084400E4073
S214003BF08C1E092C47D8DFE804F0383F14314646BF
S214003C004646051B012211460520FFF783FD0023CB
S214003C102049D1F8F02122F007021343C1F8F03111
S214003C2004E7012211460220FFF774FD0123EFE7A7
S214003C30FEF756F9184B984204D9184842F2CB5171
S214003C4007F0A9FA134A536A43F0080353620122A5
S214003C5011460220FFF75EFD0223D9E70122114636
S214003C600320FFF757FD0323D2E701221146002069
S214003C70FFF750FD0423CBE7012211461046FFF75D
S214003C8049FD0523C4E742F2EA5175E642F21661A1
S214003C9072E600BF00400E4040787D01693E01009C
S214003CA038B504461120FFF719FA042804D11F4836
S214003CB042F6F30107F06FFA012200210220FFF717
S214003CC029FDE37A022B2AD8194AD25C194D6B6A71
S214003CD023F0030313436B62FEF702F9164B2288A8
S214003CE0984294BF082000206B6A23F0080318430C
S214003CF0A388686243EAC223EB622B6BE2881B0D43
S214003D001B051343628843EAC2232B63637A227A35
S214003D101B0143EA0233A27A13436B6338BD0348A0
S214003D2042F6071107F037FA0022CFE7693E010096
S214003D304E3F010000400E4040787D0170B50546BC
S214003D401120FFF7CBF9022804D10F4842F6B11133
S214003D5007F021FA0D4E0E4BB26B2C7813401C4325
S214003D606B7844EAC324AB7844EA0364EB7844EA0D
S214003D700324B36BA34205D0002101220846FFF7B7
S214003D80C9FCB46370BD00BF693E010000400E4030
S214003D9080E4FFF8034B5868C0F30800003818BFEB
S214003DA00120704700ED00E0034BD86B80F0400028
S214003DB0C0F38010704700BF00300E4038B542EAAE
S214003DC00323B3F5007F05460C463ED019D8B3F55D
S214003DD0807F36D00AD883B3012B21D01F4840F607
S214003DE0312107F0D8F9002213461FE040F20112F5
S214003DF09342F3D11A4BD3F824321A0EC3F3074377
S214003E0014E0B3F5407F24D040F20132934210D044
S214003E1040F201229342E1D1114BD3F8283202E05E
S214003E200F4BD3F82432C3F30722DBB22B60226099
S214003E3038BD0B4BD3F82832DFE7094BD3F81C32DA
S214003E40F1E7074BD3F81C32D7E7054BD3F82032FF
S214003E50E9E7034BD3F82032CFE700BFC43F0100A9
S214003E600081E00F08B5FFF79FFF20B1024AD2F8A5
S214003E70C830002BFBD108BD0000C6431A4B0228F1
S214003E8010B5D3F830320C4612D0032813D00128D0
S214003E9014BFDBB2C3F307231B0323F47042ECB951
S214003EA05AB14FF41C61114807F075F9002010BD97
S214003EB0C3F30743F0E71B0EEEE70D49CA6E22F484
S214003EC070421343CB660120F1E70949D1F8EC2094
S214003ED022F470421343C1F8EC30F4E7002AF4D021
S214003EE040F6CC11DFE700BF0081E00FC43F0100C1
S214003EF000300E400378134A002B437870B514BF89
S214003F0004260026002B8378946914BF022500251A
S214003F10002B037924F03F0443EA0403C47814BF5B
S214003F2008210021012C08BF43F0010333432B4333
S214003F300B4393611368417923F4403343EA01430A
S214003F40136070BD00300E40F8B504460F46FFF70C
S214003F502BFF78B3FFF786FF174B5B68C3F301436D
S214003F609C4227D0154BD3F80061FDF76DFF022C5D
S214003F7005460FD1124BC6F3042606FB00069E42EA
S214003F8004D9104840F2577107F005F90221284677
S214003F90FEF7A2FCC4F1020210239340064A136106
S214003FA00FB1FFF75FFF2CB921462846BDE8F84061
S214003FB0FEF792BCF8BD00BF00300E4000400E4039
S214003FC0002D3101C43F010013B50246FFF7ECFE99
S214003FD0C8B152B90D4B0191D3F80041FDF734FF3B
S214003FE0C4F30422019902FB0002094B1B7843B17B
S214003FF0084B9A4205D8022002B0BDE81040FFF7F1
S214004000A3BF0020F8E702B010BD00BF00400E407E
S2140040109B2C0020002D3101174B4AF6E85210B5B4
S214004020596B5A639A6FD407FCD41B6C13F00303C6
S2140040301EBF124A0124C2F8B44A834216D00E4B61
S2140040409A6FD207FCD41A6C22F0030202431A6459
S2140040509A6F12F00102FBD10038084C18BF0120FD
S2140040600129C4F8B40A08BF5A6303E010B9034B29
S214004070C3F8B40A10BD00BF00300E400000C643AF
S2140040802DE9F04FA0F5E16389B00024B3F5966FF3
S214004090CDE90244CDE90444CDE9064406468A4605
S2140040A0934605D940F6BA31554807F074F8A3E0B0
S2140040B0B0F5E16F534B8CBF0122002249D1D3F8F3
S2140040C01832C3F30721DBB2079104934FF4167539
S2140040D04FF4966748E0BBF1000F0ED0D9F85C208D
S2140040E022F4FE4222F00202B6F5E16F42EA012215
S2140040F018BF02200243C9F85C20BAF1000F26D090
S21400410020460021FFF7BAFE044610B940F61741D4
S214004110CAE701214046FFF7B1FE044610B940F653
S2140041201F41C1E7384A536EBD4238BF3D4623F4AF
S214004130FF73E72D23F0010328BFE725B6F5E16FEF
S21400414018BF43F0010343EA4503536654E00124D5
S21400415052E0D3F81832190EC3F3074307910493BD
S2140041604FF496654FF4E167DFF89C90D9F84C4021
S2140041700192C4F30174234605A902A8FFF71EFEA8
S214004180D9F8EC30019AC3F30128434606A903A8E0
S214004190FFF714FE049BF01B079FF91A4143B1FB7F
S2140041A0F5F299182CBF012300238F421ED3EBB9DA
S2140041B0069A039FD31B4343B3FBF5F3FF182CBFAC
S2140041C001230023BA4211D383B9059B029AA3EBBD
S2140041D0020C00FB0CF0B0FBF5F555192CBF0120C6
S2140041E00020AB4202D300283FF475AF044840F6E7
S2140041F0084106F0D0FF0024204609B0BDE8F08F45
S214004200C43F01000081E00F00300E40334A08B57D
S214004210136FD16C11F0010F03F0060344D0002B8E
S21400422042D0132857D9143813288CBF10230823DC
S2140042302A49013BCA6C180322F47F4240EA032352
S2140042401343CB64264BCA6C1B88C2F30322283365
S214004250013202EB820003EB5303B3FBF0F3C86CAE
S214004260013B072B28BF072320F0EE6040EA0363DC
S21400427043F48013CB641B4BB3F90030002B12DBE6
S21400428003F12800C0F34E030344500800EB42023B
S214004290B3FBF2F20B6D072A28BF072223F0700348
S2140042A043EA02120A6508BDD16C01F00101194308
S2140042B004D109280FD90A380928B6E7D26CD207E4
S2140042C002D50BB92728B0E7074840F65D4106F04F
S2140042D062FF0023ACE70423AAE700BF00300E40CD
S2140042E0702C0020722C0020C43F01000C4BD3F829
S2140042F0803910B5044633B9012804D9094840F678
S2140043007B4106F048FF084A136F23F00703234358
S2140043101367064BBDE810401888FFF777BF00BF4D
S2140043200000C643C43F010000300E406E2C002043
S21400433038B50389C82B044604D9514840F65F2196
S21400434006F029FFA28823899A4204D94C484FF4E4
S214004350266106F020FFB4F90C30C82B04DD48486F
S21400436040F6612106F017FF6378012B55D1A3882C
S214004370C82B04D940F66521414806F00CFFE288B8
S21400438042F210739A4204D93D4840F6722106F074
S21400439002FFE3884A2B48D9B3F5FA7F47D340F6A5
S2140043A0C312934294BF4FF000524FF0405235492B
S2140043B0B4F90C00CB6C23F0405323F00103002823
S2140043C0A8BF43F001031343CB64D1F8EC30A288B6
S2140043D043F44073C1F8EC302B4B1A80CB6E43F09D
S2140043E08073CB66294BD3F8800900B10420FFF711
S2140043F07DFF274B21891980264BB4F90C20A08815
S2140044001A80FFF703FFA37BA3B1012B23D01C4820
S21400441040F6711106F0BFFE0FE0022BAFD1A38865
S2140044200A2BACD940F66A21A6E70022BFE74FF078
S2140044308052BCE7134B184A9A65012260881146E1
S214004440FFF71EFE054648B90D4840F6A92106F0BE
S214004450A2FE284638BD0B4B104AEDE7094AD36B3F
S21400446043F48063D3636078FFF7D6FDA37AA3F1A5
S214004470200253425341054AC2F89437E9E700BF89
S214004480C43F010000300E406E2C00200000C643E2
S214004490702C0020722C002077402057372110B750
S2140044A0082838B504460D4604D84FF6FF73CB40AF
S2140044B0DB0704D4084840F22D4106F06CFE30239A
S2140044C00C2013FB040000F18C40012100F50820AD
S2140044D001FA05F5056038BD0F400100082838B51B
S2140044E004460D4604D84FF6FF73CB40DB0704D4D2
S2140044F0084840F2FE3106F04EFE30230C2013FB37
S214004500040000F18840012100F5082001FA05F5B5
S214004510056038BD0F4001000828F8B505460C4672
S21400452016461F4604D84FF6FF73CB40DB0704D46D
S21400453019484FF4B07106F02EFE26B121462846E3
S214004540CFB1FFF7ADFF05EB4503072C4FEA03138A
S2140045504FF00F0112D8A00006FA00F281400F4873
S214004560184406F0C9FEAEB92146284677B1BDE824
S214004570F840FFF795BFFFF7B1FFE4E7A4F10800A6
S214004580800006FA00F281400548E9E7BDE8F840F9
S214004590FFF7A4BFF8BD00BF5B40010004800840E1
S2140045A008800840074B0422C3F88020BFF34F8FD3
S2140045B0BFF36F8F044B0021D9664FF4EA401962AF
S2140045C0FEF7C4B900E100E000200040172838B527
S2140045D005460C4603DD0848772106F0DCFD1F2D56
S2140045E084F0010403D90548912106F0D4FD044B5C
S2140045F02B449B001C6038BDA7400100F34001001F
S214004600A001811010B5044618B91B48912106F088
S214004610C2FD23781B0613F0604F03D01648922184
S21400462006F0B9FDE378072B03D91348A32106F05B
S214004630B2FD01214FF4EA40FEF788F9B4F80130E4
S21400464022785BBA9BB243EA02630C4A13600023EB
S2140046501362D36253634FF00043D3664FF0FF33C9
S2140046609366074A0421C2F88011E3785B01DBB247
S21400467082F80233116010BDA74001000020004000
S21400468000E100E02DE9F041C3B2012617280546F7
S2140046900C46904606FA03F603DD3A48EC2106F08F
S2140046A07AFD1CB93748ED2106F075FD236823F422
S2140046B07C1323F00F031BB13248F22106F06BFD8A
S2140046C0A37A1B0413F47C0F04D02E4840F2091181
S2140046D006F061FDE37A1B0513F07E6F04D02948CF
S2140046E040F20B1106F057FD237B5B0513F0FE5FCF
S2140046F004D0244840F20D1106F04DFD224F637B96
S214004700BE66302000FB05702268C0F88020C0F826
S2140047108830E37AA27A1B0543EA0243227B43EA07
S214004720425328F00302C0F88430C0F8982006F000
S214004730CDFDFB6E3343FB66237A13B17B6B3343AD
S2140047407B63637A13B1FB6A3343FB620E4B1A68D2
S214004750237923B1DB431B0263F47F431A4063795A
S2140047600BB142EA0322A3790BB122EA0302E379F2
S2140047701A43054B1A60054A9662DE63BDE8F041AF
S21400478006F0AABDA740010000200040002000441B
S21400479010B5C3B20124172804FA03F404DD09484F
S2140047A040F2971106F0F7FC06F090FD064AD36E2D
S2140047B023EA0403D366054B1C62BDE8104006F0EE
S2140047C08BBD00BFA7400100002000400020004431
S2140047D010B5C3B20124172804FA03F404DD0B480D
S2140047E040F2B51106F0D7FC06F070FD084B1A6AC9
S2140047F0224209D19B6A34EA03030CBF0124002439
S21400480006F06AFD204610BD0024F9E7A740010027
S21400481000200040022838B504460D4603D911484A
S2140048204C2106F0B8FC6B791F2B03D90D484F219D
S21400483006F0B1FCAB786A789B0143EA82032A78DB
S2140048401343EA7843EA02132A7943EAC2236A79D1
S21400485043EA0233AA79043443EA42432401024A73
S214004860135138BD3E41010000200640014B186040
S214004870704700BF0000C442427801790378002ADE
S214004880827870B514BF04260026002AC27814BFAA
S21400489010250025002A42794FEA023242EA012218
S2140048A042EA0302837942EA8332C37914BF2024A2
S2140048B00024002B037A42EA034343EA0603427AC3
S2140048C043EA050314BF4FF4004100212343002AA6
S2140048D014BF4FF4003200220B431343014A136007
S2140048E070BD00BF002006402DE9F04180460C4612
S2140048F01F46164622B934484FF4A17106F04BFC09
S2140049003CB9324B98450CBF31483248FEF72AFD79
S2140049100446402F4BD009D8A7B1202F3DD0BDE884
S214004920F041294840F2891106F035BC602FF6D1D7
S214004930B6EB940F04D9244840F2831106F02BFC02
S214004940042108E0B6EB141F04D91F484FF4BA71CF
S21400495006F021FC10214E4371081F4D01EB441454
S214004960B4FBF6F6203EB5EBC60F4FEAC60404D2FB
S21400497015484FF4D07106F00EFCD8F8003023F03E
S2140049806003C8F80030D8F800302C401F43C8F841
S2140049900070C8F81440BDE8F081B6EBD40F04D917
S2140049A0094840F2791106F0F6FB0821D3E7062500
S2140049B0B4FBF5F3B34204D203484FF4BF7106F0DC
S2140049C0EAFB2946C7E700BF8A410100000801400C
S2140049D05041070040410500F8FF7F0038B5164BF0
S2140049E0984204460D4620D003F5806398421CD0BA
S2140049F003F58063984218D003F58063984214D07C
S214004A0003F58063984210D003F5806398420CD07B
S214004A1003F53053984208D003F58063984204D0DB
S214004A2006484FF4337106F0B6FBEB435B0003F029
S214004A300A03E360E56038BD000001408A410100DA
S214004A4038B5254B254D984204461ED0A8421CD0AA
S214004A5003F50063984218D003F58063984214D09B
S214004A6003F58063984210D003F5806398420CD01B
S214004A7003F53053984208D003F58063984204D07B
S214004A80174840F2424106F086FB40F6AA63E36010
S214004A9041F20502002323606260124AA36063614C
S214004AA0E364A2640C4A236694426367A367E367E1
S214004AB003D002F50062944200D123650023AC4285
S214004AC0A36506D0084A944203D002F58062944259
S214004AD000D1E36538BD00BF00000140000401407E
S214004AE08A410100F9FF0100000C014038B5314B46
S214004AF0984204460D4620D003F5806398421CD0A9
S214004B0003F58063984218D003F58063984214D06A
S214004B1003F58063984210D003F5806398420CD06A
S214004B2003F53053984208D003F58063984204D0CA
S214004B30214840F2FD2106F02EFB2046FFF780FFBD
S214004B40AB7C1BB1236843F080432360EB7C1BB136
S214004B502B7D43F08003A3652A8A6B7B1343EA8987
S214004B60134363602B7BD5E901122046FFF7BCFE9A
S214004B706B7D1BB1236843F480332360AB7D1BB190
S214004B80236843F400432360EB7D2A7E1B0712054F
S214004B9002F4E00203F0E04313432366636F23F05E
S214004BA030036367626F6B7E134363672B78E36043
S214004BB038BD00BF000001408A4101002DE9F047E2
S214004BC0374FDDE908840646154699468A4641B9B8
S214004BD0082323704FF4D963A360324B6760E36009
S214004BE0FEE75AB1531E134208D00823237040F242
S214004BF0CB63A3602B4B6760E360FEE706F066FBC3
S214004C00002D08BF04254D4538BF4D46D6F808E0B0
S214004C106B1E13EA0E0FC5F1000202EA0E0208BF71
S214004C200025154409F1FF33AA4413EA0A0FC9F117
S214004C30000202EA0A0208BF4FF0000902EB09036D
S214004C4072680132A2EB0E01A3EB0E0E714584468C
S214004C5015491AD2B8F1000F02D09B1AC8F80030D6
S214004C60162540F22273C4E902312570676060465B
S214004C7006F032FB40F2D763A3600A4B25706760EC
S214004C80E36000252846BDE8F087B3600023237064
S214004C904FF4E563C4E90231676006F01DFBF1E7F7
S214004CA0D74101004E4201003642010030B50C46A5
S214004CB085B011461D461BB9039206F034FB0399D6
S214004CC0064801950023009304220123002C18BFF8
S214004CD02046FFF773FF05B030BD00BF5C10002014
S214004CE01FB50C4B1B78012B0AD1FFF753F8002891
S214004CF014BF6FF005004FF0FF3005B05DF804FB01
S214004D00684600F027FA9DF80000003818BF01201A
S214004D104042F2E79F500020084B187801280AD13D
S214004D20074B1B78012B07D1064B1B78002B14BFB3
S214004D300320022070470020704700BF9C500020D0
S214004D409F500020A05000201FB5FFF723F848B959
S214004D50074B1B78012B02D0684600F08BF94FF00A
S214004D60FF3001E06FF0050005B05DF804FB00BF02
S214004D709F50002030B585B00546FFF70BF818B1F8
S214004D800024204605B030BDB5B91C2003F006FE51
S214004D9004460028F4D00123174903766A462046C5
S214004DA000F0E4FB9DF80030EBB1237E012BE7D149
S214004DB0204603F0FBFDE3E7AC686CB91C2003F06B
S214004DC0EDFD04460028DBD00123237629680A4B34
S214004DD0002908BF1946E1E7EB681B2BD0D914F071
S214004DE00303F2D0CCE72DB16B68DB0702D50123B5
S214004DF06376C6E70023FBE7634201007FB50446FF
S214004E000E461546FEF7C6FF18B10024204604B02D
S214004E1070BD002CF9D0C5B9182003F0BFFD0446BC
S214004E200028F2D00123144903746B46324620460C
S214004E3000F09CFE9DF80030002BE7D0237C012B71
S214004E40E3D1204603F0B2FDDFE7AC686CB918206A
S214004E5003F0A4FD04460028D7D001232374296854
S214004E60054B002908BF1946DFE7EB68172BCCD99E
S214004E7014F00303F2D0C8E7694201002DE9F04FB1
S214004E808FB081468A461646FEF784FF08B1002496
S214004E903FE0B9F1000FFAD0002E3ED1C82003F053
S214004EA07DFD04460028F2D0012680F8C0604FF44D
S214004EB0806003F073FD05460028E8D0414F84F873
S214004EC0C1604FF480681F260DF1280B00223E4972
S214004ED05B4604F1980000F0D7FA9DF82820002AD7
S214004EE050D10723CDE90623384BCDF820B003EA8E
S214004EF09803CDE90223CDE904225346CDE90065A7
S214004F004A463946204601F00FF99DF82830002B16
S214004F1038D120460FB0BDE8F08FB468DCB9C820A1
S214004F2003F03CFD04460028B1D0012384F8C030CD
S214004F30D6F81480B8F1000F2CD14FF4806003F03F
S214004F402DFD054670B994F8C030012B9FD1204640
S214004F5003F02CFD9BE7F368C72B98D914F00303E6
S214004F60E4D094E7012384F8C1304FF480683768B2
S214004F70144BB669002F08BF1F46FEB1731C1FD026
S214004F80372E17DD94F8C130012BDCD1284603F00C
S214004F900DFDD8E735694DB9404603F0FFFC0546E0
S214004FA00028D0D0012384F8C130E0E715F00703CD
S214004FB0F9D0C8E7C6F13706F6B285E71F2683E7BD
S214004FC0402681E7734201007D420100FEFFFF3F5D
S214004FD0034B1B78012B06BF024B18680020704756
S214004FE09F500020342C00202DE9F0411B4B1B78ED
S214004FF0012B00D0FEE71A4B1F7867BB06F066F958
S214005000184D194E95F80080044600F071FD4028B2
S214005010287012D0154AB8F1400F52F8303033607D
S21400502001D1AFF30080124B32681B689A4208D158
S2140050302046BDE8F04106F04FB93760AFF3008078
S21400504002E02B78402BF9D001F0D3FB204606F087
S21400505043F9BFF36F8FBDE8F08100BF9F5000207B
S214005060A05000209E500020382C0020342A00201B
S214005070342C002070B5044608B906F054F9244BC9
S2140050801E78012E09D013232370224B636040F252
S214005090FE33A360204BE360FEE7204B1B884BB932
S2140050A0092323701B4B636040F20943A3601A4B2D
S2140050B0E360FEE71A4D2B784BB11F232370154B88
S2140050C0636040F20C43A360134BE360FEE706F018
S2140050D006F948B11F2323700E4B636040F20F435E
S2140050E0A3600D4BE360FEE700F002FD0D4B0E4A99
S2140050F018700E4B2E7018700D4B53F8303013602E
S2140051000C4A136001F036FBBDE8704006F00BB9A0
S2140051109C5000209042010010430100762C002095
S2140051209F5000209E500020382C00209D500020CC
S214005130342A0020342C00200023054A1946013367
S214005140402BC2E9001102F10802F8D1704700BFF7
S214005150342A002070B5044608B906F0E4F8564D27
S2140051606A68D2B12B68554E4BB92346296B544812
S2140051709200FFF79BFD306023780BB170BD336063
S214005180504B32681A60504A6B6813604F49504A59
S2140051909B0013600A6813440B602A89BAB10C2678
S2140051A02346296B4B487243FFF780FD4A4B186035
S2140051B02378002BE2D1494B494A18602B8913808B
S2140051C04249484A734313600A6813440B60464ECC
S2140051D06B6B336001F080FB02F074FF054648B14C
S2140051E001232370414B63604FF4DA73A360404B96
S2140051F0E360C3E702F0FEFF36683E4BB04202466D
S214005200186009D209232370384B63604FF4DD73AE
S214005210A360374BE360FEE73CD02B46002001211D
S21400522003F002FA7043344BB6F57A7F186008D95B
S214005230324600230020012103F0F6F94FF47A7578
S21400524045432E4B1D602E4B002119702D4B1970B7
S2140052502D4B19602D4B19602D4B19702D4B197065
S214005260194B1A68C2B92C4B00221A7000F038FC91
S214005270FFF762FF1A4B1B88B3B9204600F042FFC7
S2140052802378002B7FF47AAF06F043F9234B0122F4
S2140052901A7073E72846C6E70A4B18680028E2D05B
S2140052A0920006F07EFFDEE7204600F02DF9237818
S2140052B0002BE2D062E700BF70100020F829002023
S2140052C0EB420100FC290020002A0020F4290020DF
S2140052D0042A0020FE420100082A00200C2A002092
S2140052E0742C0020102A0020142A0020904201006E
S2140052F018430100202A00201C2A0020182A00201B
S2140053009F500020A0500020342C0020382C002075
S2140053109D5000209E500020A15000209C50002050
S21400532090F82710094B53F83120C26010B532B9F7
S214005330026143F8310003EBC103586010BD00243E
S2140053400461106143F83100F8E700BF342A0020FA
S21400535090F82720094B53F8321010B5D40031B915
S214005360C0E9031143F832002344586010BD2344BB
S2140053700022C2605A680261D060F6E7342A002034
S21400538010B5044690F8270000F0C2FB074B94F8CF
S21400539027201B789A42204603D1BDE81040FFF72D
S2140053A0D7BFBDE81040FFF7BBBF00BF9D50002031
S2140053B010B50446D4E9033290F8270082B90D49A7
S2140053C053B941F8303001EBC0014B6000F0B6FB3A
S2140053D00023C4E9033310BD1A6141F83030F7E703
S2140053E0D36023B9034B03EBC0004260F0E71A61B9
S2140053F0EEE700BF342A0020F7B504460D4611B389
S21400540002F0F8FE114B1A680026571E46F1FF31CF
S214005410E5FB00713346384603F006F9CDE9006631
S21400542001460B4A234604F1440006F041FE08B14B
S21400543005F079FF0323204684F8263003B0BDE844
S214005440F040FFF7B5BF0223F5E700BF142A00209F
S214005450C1B6000038B50B4D04462868002380F816
S214005460241080F825301146FFF7C6FF34B12968AE
S214005470201D0C62BDE8384006F050B82B681C6250
S21400548038BD00BF342C00202DE9F0470546924673
S2140054901C460BB905F047FFFEF77CFCDFF864807E
S2140054A0164F064638B1202323705523C4E9023729
S2140054B0C4F80480FEE73DB90A2323705823C4E9E4
S2140054C00237C4F80480FEE705F000FF10223146DC
S2140054D08146284606F065FE094B2B60281DC5F858
S2140054E00CA006F017F8484605F0F6FE7023267066
S2140054F0C4E90237C4F80480BDE8F0877A430100A7
S214005500464C41471F430100134BF0B51C68134B34
S2140055101E880025721E04F10C0192B22B46AFB213
S214005520BA4211D80C214A43A118A3500C4A4B602A
S2140055300B81D3809680146003700A4B43605D2312
S2140055408360094BC360F0BD41E9031321F8043CB6
S21400555001350C31E3E700BF0C2A0020742C002034
S2140055602C2A002087430100E14301002DE9F8437F
S214005570054614460AB905F0D6FEFEF70BFCDFF822
S2140055806480164F064638B1202323705223C4E9A0
S2140055900237C4F80480FEE73DB90A23237055237A
S2140055A0C4E90237C4F80480FEE705F08FFE18222F
S2140055B031468146284606F0F4FD2846084B40F85A
S2140055C0043B05F0A7FF484605F086FE6C232670D0
S2140055D0C4E90237C4F80480BDE8F8836F440100CC
S2140055E04D555458F04301002DE9F74F0C9C0546E5
S2140055F0894616460CB905F096FEFEF7CBFB48B179
S21400560020232370724B636040F23313A360714B08
S214005610E360FEE74DB90A2323706D4B63604FF4D9
S2140056209B73A3606B4BE360FEE7C6F30E034BB1C0
S21400563008232370664B636040F23913A360654B02
S214005640E360FEE72A68644B9A4209D00C23237075
S2140056505F4B636040F23D13A3605E4BE360FEE782
S21400566036B2002E0CDB05F03AFE48B11F2323703D
S214005670574B63604FF4A073A360564BE360FEE79E
S214005680564B93F800B0BBF1010F16D105F01EFE85
S2140056902F7DDFF850818246CFB9D8F8003085F8E4
S2140056A014B0DA6A2B61EA60DD6205F015FE484B3D
S2140056B0636027704FF4AA7305E002232370444BFF
S2140056C0636040F24513A360424BE36013E02B692E
S2140056D0D8F8002093421CD1FF2FDFF8F4803D4E0F
S2140056E00CD105F0F9FD1E232370C4F8048040F2A7
S2140056F05D13C4E9023603B0BDE8F08F01372F759D
S21400570005F0EAFD23232370C4F8048040F26913F1
S214005710EFE7002E08DA05F0DFFD1D2323702C4B83
S21400572063604FF4BB73CEE72D49097841B105F0AD
S214005730D3FD2D232370264B63604FF4C173C2E75D
S21400574092F8271093F827208A4202D9184600F0CC
S214005750C5FD4A4604212846FFF77CFE504605F064
S214005760BBFDFFF741FC05F0B1FDD8F8003093F81B
S2140057702530032B26D8DFE803F002101E1700237F
S2140057802370134B63604FF4D073A360114BE36038
S21400579003B0BDE8F04F05F09FBD212323700C4BEE
S2140057A063604FF4D573F0E722232370084B6360E1
S2140057B04FF4DA73E9E731232370054B63604FF447
S2140057C0DF73E2E7019005F0AEFD0198E0E700BF69
S2140057D0F0430100584401004D5554589F50002096
S2140057E0A0500020342C0020044B03600023C0E9A6
S2140057F003330375043005F08DBE00BF4E4F4E4593
S2140058002DE9F84305460F4614460AB905F08BFD08
S214005810FEF7C0FA064640B120232370474B63606C
S214005820A523A360464BE360FEE745B90A23237031
S214005830424B6360A823A360414BE360FEE72A68FF
S214005840404B9A4208D00C2323703C4B6360AB233A
S214005850A3603B4BE360FEE73B4B1B78012B0BD072
S21400586002232370354B6360AF23A360344BE360A1
S21400587007463846BDE8F88305F028FD804667B140
S214005880012F2ED005F028FD082323702B4B6360D4
S214005890F323A3602A4BE360FEE76B68DFF89C9077
S2140058A0274E93B9286910B1294605F07EFF284691
S2140058B0FFF79AFF404605F00FFD00232370C4F85B
